{
  "contractName": "Dask",
  "abi": [
    {
      "inputs": [],
      "payable": false,
      "stateMutability": "nonpayable",
      "type": "constructor"
    },
    {
      "anonymous": false,
      "inputs": [
        {
          "indexed": false,
          "name": "price",
          "type": "uint256"
        }
      ],
      "name": "PricePerAnswerSet",
      "type": "event"
    },
    {
      "anonymous": false,
      "inputs": [
        {
          "indexed": false,
          "name": "askedBy",
          "type": "address"
        },
        {
          "indexed": false,
          "name": "text",
          "type": "string"
        }
      ],
      "name": "QuestionAsked",
      "type": "event"
    },
    {
      "anonymous": false,
      "inputs": [
        {
          "indexed": false,
          "name": "askedBy",
          "type": "address"
        },
        {
          "indexed": false,
          "name": "text",
          "type": "string"
        },
        {
          "indexed": false,
          "name": "answer",
          "type": "uint256"
        }
      ],
      "name": "QuestionAnswered",
      "type": "event"
    },
    {
      "constant": false,
      "inputs": [
        {
          "name": "price",
          "type": "uint256"
        }
      ],
      "name": "setPricePerAnswer",
      "outputs": [],
      "payable": false,
      "stateMutability": "nonpayable",
      "type": "function"
    },
    {
      "constant": true,
      "inputs": [],
      "name": "getPricePerAnswer",
      "outputs": [
        {
          "name": "",
          "type": "uint256"
        }
      ],
      "payable": false,
      "stateMutability": "view",
      "type": "function"
    },
    {
      "constant": false,
      "inputs": [
        {
          "name": "text",
          "type": "string"
        },
        {
          "name": "maxAnswers",
          "type": "uint256"
        },
        {
          "name": "maxDuration",
          "type": "uint256"
        }
      ],
      "name": "askQuestion",
      "outputs": [],
      "payable": true,
      "stateMutability": "payable",
      "type": "function"
    },
    {
      "constant": false,
      "inputs": [
        {
          "name": "askedBy",
          "type": "address"
        },
        {
          "name": "text",
          "type": "string"
        },
        {
          "name": "answer",
          "type": "uint256"
        }
      ],
      "name": "answerQuestion",
      "outputs": [],
      "payable": false,
      "stateMutability": "nonpayable",
      "type": "function"
    }
  ],
  "bytecode": "0x6080604052600060015534801561001557600080fd5b50336000806101000a81548173ffffffffffffffffffffffffffffffffffffffff021916908373ffffffffffffffffffffffffffffffffffffffff1602179055506108bf806100656000396000f300608060405260043610610062576000357c0100000000000000000000000000000000000000000000000000000000900463ffffffff1680633321c5e11461006757806345f5b2fb14610092578063a9e4354514610102578063ec3775621461012f575b600080fd5b34801561007357600080fd5b5061007c6101c2565b6040518082815260200191505060405180910390f35b610100600480360381019080803590602001908201803590602001908080601f016020809104026020016040519081016040528093929190818152602001838380828437820191505050505050919291929080359060200190929190803590602001909291905050506101cc565b005b34801561010e57600080fd5b5061012d600480360381019080803590602001909291905050506103ca565b005b34801561013b57600080fd5b506101c0600480360381019080803573ffffffffffffffffffffffffffffffffffffffff169060200190929190803590602001908201803590602001908080601f016020809104026020016040519081016040528093929190818152602001838380828437820191505050505050919291929080359060200190929190505050610466565b005b6000600154905090565b60c0604051908101604052808481526020018381526020016000815260200182815260200134815260200142815250600260003373ffffffffffffffffffffffffffffffffffffffff1673ffffffffffffffffffffffffffffffffffffffff168152602001908152602001600020846040518082805190602001908083835b602083101515610270578051825260208201915060208101905060208303925061024b565b6001836020036101000a038019825116818451168082178552505050505050905001915050908152602001604051809103902060008201518160000190805190602001906102bf9291906107ee565b506020820151816001015560408201518160020155606082015181600301556080820151816004015560a082015181600601559050507fc765ec94ba539cc21ab55e80ed770ae8de7ce7bab0b00ec497051defa6a0bddd3384604051808373ffffffffffffffffffffffffffffffffffffffff1673ffffffffffffffffffffffffffffffffffffffff16815260200180602001828103825283818151815260200191508051906020019080838360005b8381101561038a57808201518184015260208101905061036f565b50505050905090810190601f1680156103b75780820380516001836020036101000a031916815260200191505b50935050505060405180910390a1505050565b6000809054906101000a900473ffffffffffffffffffffffffffffffffffffffff1673ffffffffffffffffffffffffffffffffffffffff163373ffffffffffffffffffffffffffffffffffffffff1614151561042557600080fd5b806001819055507f93887a7766e92576015423ee07d9b7e20945556468e4370dd20b19848a3d79a9816040518082815260200191505060405180910390a150565b80600260008573ffffffffffffffffffffffffffffffffffffffff1673ffffffffffffffffffffffffffffffffffffffff168152602001908152602001600020836040518082805190602001908083835b6020831015156104dc57805182526020820191506020810190506020830392506104b7565b6001836020036101000a038019825116818451168082178552505050505050905001915050908152602001604051809103902060050160003373ffffffffffffffffffffffffffffffffffffffff1673ffffffffffffffffffffffffffffffffffffffff168152602001908152602001600020819055503373ffffffffffffffffffffffffffffffffffffffff166108fc6001549081150290604051600060405180830381858888f1935050505015801561059b573d6000803e3d6000fd5b50600154600260008573ffffffffffffffffffffffffffffffffffffffff1673ffffffffffffffffffffffffffffffffffffffff168152602001908152602001600020836040518082805190602001908083835b60208310151561061457805182526020820191506020810190506020830392506105ef565b6001836020036101000a0380198251168184511680821785525050505050509050019150509081526020016040518091039020600401600082825403925050819055506001600260008573ffffffffffffffffffffffffffffffffffffffff1673ffffffffffffffffffffffffffffffffffffffff168152602001908152602001600020836040518082805190602001908083835b6020831015156106ce57805182526020820191506020810190506020830392506106a9565b6001836020036101000a0380198251168184511680821785525050505050509050019150509081526020016040518091039020600201600082825401925050819055507f05d06ff4cb4124d81119764d0dabd21e98cd285ee680d2f45fbec2d0cef2813f838383604051808473ffffffffffffffffffffffffffffffffffffffff1673ffffffffffffffffffffffffffffffffffffffff16815260200180602001838152602001828103825284818151815260200191508051906020019080838360005b838110156107ad578082015181840152602081019050610792565b50505050905090810190601f1680156107da5780820380516001836020036101000a031916815260200191505b5094505050505060405180910390a1505050565b828054600181600116156101000203166002900490600052602060002090601f016020900481019282601f1061082f57805160ff191683800117855561085d565b8280016001018555821561085d579182015b8281111561085c578251825591602001919060010190610841565b5b50905061086a919061086e565b5090565b61089091905b8082111561088c576000816000905550600101610874565b5090565b905600a165627a7a72305820a3e1276ae1b4dd0655c68e060de72f810d2ece043d4565f50d1a2afd132180400029",
  "source": "pragma solidity ^0.4.18;\n\ncontract Dask {\n    address owner;\n\n    uint PRICE_PER_ANSWER = 0;\n\n    struct Question {\n        string text;\n        uint maxAnswers;\n        uint currentAnswers;\n        uint maxDuration;\n        uint pool;\n        mapping (address => uint) answers;\n        uint started;\n    }\n\n    mapping (address => mapping (string => Question)) questions;\n\n    event PricePerAnswerSet(uint price);\n    event QuestionAsked(address askedBy, string text);\n    event QuestionAnswered(address askedBy, string text, uint answer);\n\n    modifier onlyOwner() {\n        require(msg.sender == owner);\n        _;\n    }\n\n    constructor() public {\n        owner = msg.sender;\n    }\n\n    function setPricePerAnswer(uint price) public onlyOwner {\n        PRICE_PER_ANSWER = price;\n        emit PricePerAnswerSet(price);\n    }\n\n    function getPricePerAnswer() public view returns(uint) {\n        return PRICE_PER_ANSWER;\n    }\n\n    function askQuestion(string text, uint maxAnswers, uint maxDuration) public payable {\n        // require(); // want to check if there's enough in msg.value to fund the question. Need to convert to wei?\n        questions[msg.sender][text] = Question(text, maxAnswers, 0, maxDuration, msg.value, now); // is msg.value in wei?\n        emit QuestionAsked(msg.sender, text);\n    }\n\n    function answerQuestion(address askedBy, string text, uint answer) public {\n        // Question memory question = questions[askedBy][text];\n        \n        // require(answer > 0 && answer < 6);\n        // require(questions[askedBy][text].answers[msg.sender] == 0); // not answered by sender\n        // require(question.currentAnswers <= question.maxAnswers);\n        // require(now < question.started + question.maxDuration);\n\n        questions[askedBy][text].answers[msg.sender] = answer;\n\n        msg.sender.transfer(PRICE_PER_ANSWER);\n        questions[askedBy][text].pool -= PRICE_PER_ANSWER;\n        questions[askedBy][text].currentAnswers += 1;\n\n        emit QuestionAnswered(askedBy, text, answer);\n    }\n}",
  "sourcePath": "/Users/petars/projects/review-network/solidity-workshop-nis/contracts/Dask.sol",
  "compiler": {
    "name": "solc",
    "version": "0.4.23+commit.124ca40d.Emscripten.clang"
  },
  "schemaVersion": "2.0.0",
  "updatedAt": "2018-05-18T13:36:47.040Z"
}